{
  "transactions": [
    {
      "hash": "0x21c63f9aaec82dbf1c1e1099f765b82444c0b85d48faeb72b5b84896f588239e",
      "transactionType": "CALL",
      "contractName": null,
      "contractAddress": "0x8103b0a8a00be2ddc778e6e7eaa21791cd364625",
      "function": "createSubscription()",
      "arguments": [],
      "transaction": {
        "from": "0x3a5525d06aee6da10b384218c7f02006f53a1501",
        "to": "0x8103b0a8a00be2ddc778e6e7eaa21791cd364625",
        "gas": "0x1558c",
        "value": "0x0",
        "input": "0xa21a23e4",
        "nonce": "0x2",
        "chainId": "0xaa36a7"
      },
      "additionalContracts": [],
      "isFixedGasLimit": false
    },
    {
      "hash": "0x905538eddd2968192c794eae98715a302c2bdb7768c111896812811ce2f298cd",
      "transactionType": "CALL",
      "contractName": null,
      "contractAddress": "0x779877a7b0d9e8603169ddbd7836e478b4624789",
      "function": "transferAndCall(address,uint256,bytes)",
      "arguments": [
        "0x8103B0A8A00be2DDC778e6e7eaa21791Cd364625",
        "3000000000000000000",
        "0x00000000000000000000000000000000000000000000000000000000000030bf"
      ],
      "transaction": {
        "from": "0x3a5525d06aee6da10b384218c7f02006f53a1501",
        "to": "0x779877a7b0d9e8603169ddbd7836e478b4624789",
        "gas": "0x1b43f",
        "value": "0x0",
        "input": "0x4000aea00000000000000000000000008103b0a8a00be2ddc778e6e7eaa21791cd36462500000000000000000000000000000000000000000000000029a2241af62c00000000000000000000000000000000000000000000000000000000000000000060000000000000000000000000000000000000000000000000000000000000002000000000000000000000000000000000000000000000000000000000000030bf",
        "nonce": "0x3",
        "chainId": "0xaa36a7"
      },
      "additionalContracts": [],
      "isFixedGasLimit": false
    },
    {
      "hash": "0xf1482d3e3b4a6213565da4792225126de1ec2136ad48866cb6557c66a44b9a40",
      "transactionType": "CREATE",
      "contractName": "Raffle",
      "contractAddress": "0xac48b201e9d3f27076da1bb518e194b88b5288fe",
      "function": null,
      "arguments": [
        "0x8103B0A8A00be2DDC778e6e7eaa21791Cd364625",
        "10000000000000000",
        "0x474e34a077df58807dbe9c96d3c009b23b3c6d0cce433e59bbf5b34f823bc56c",
        "12479",
        "500000",
        "30"
      ],
      "transaction": {
        "from": "0x3a5525d06aee6da10b384218c7f02006f53a1501",
        "gas": "0x170ced",
        "value": "0x0",
        "input": "0x610160604052348015610010575f5ffd5b506040516116e73803806116e78339818101604052810190610032919061025c565b858073ffffffffffffffffffffffffffffffffffffffff1660808173ffffffffffffffffffffffffffffffffffffffff1681525050508460a081815250508573ffffffffffffffffffffffffffffffffffffffff1660c08173ffffffffffffffffffffffffffffffffffffffff16815250508360e081815250508267ffffffffffffffff166101008167ffffffffffffffff16815250508163ffffffff166101208163ffffffff16815250505f60025f6101000a81548160ff02191690836001811115610102576101016102e5565b5b021790555042600181905550806101408181525050505050505050610312565b5f5ffd5b5f73ffffffffffffffffffffffffffffffffffffffff82169050919050565b5f61014f82610126565b9050919050565b61015f81610145565b8114610169575f5ffd5b50565b5f8151905061017a81610156565b92915050565b5f819050919050565b61019281610180565b811461019c575f5ffd5b50565b5f815190506101ad81610189565b92915050565b5f819050919050565b6101c5816101b3565b81146101cf575f5ffd5b50565b5f815190506101e0816101bc565b92915050565b5f67ffffffffffffffff82169050919050565b610202816101e6565b811461020c575f5ffd5b50565b5f8151905061021d816101f9565b92915050565b5f63ffffffff82169050919050565b61023b81610223565b8114610245575f5ffd5b50565b5f8151905061025681610232565b92915050565b5f5f5f5f5f5f60c0878903121561027657610275610122565b5b5f61028389828a0161016c565b965050602061029489828a0161019f565b95505060406102a589828a016101d2565b94505060606102b689828a0161020f565b93505060806102c789828a01610248565b92505060a06102d889828a0161019f565b9150509295509295509295565b7f4e487b71000000000000000000000000000000000000000000000000000000005f52602160045260245ffd5b60805160a05160c05160e05161010051610120516101405161136f6103785f395f818161076c015261081101525f61064401525f61062101525f61060001525f6105c401525f8181610271015261036c01525f81816102ac0152610300015261136f5ff3fe60806040526004361061009b575f3560e01c8063473f1ddc11610063578063473f1ddc1461014d57806355c9e926146101775780636e04ff0d146101a157806391ad27b4146101de578063c1c244e814610208578063e55ae4e8146102325761009b565b806309bc33a71461009f578063115cbaf5146100c95780631fe543e3146100f35780632cfcc5391461011b5780634585e33b14610125575b5f5ffd5b3480156100aa575f5ffd5b506100b361026e565b6040516100c09190610b5e565b60405180910390f35b3480156100d4575f5ffd5b506100dd610295565b6040516100ea9190610bea565b60405180910390f35b3480156100fe575f5ffd5b5061011960048036038101906101149190610d8e565b6102aa565b005b61012361036a565b005b348015610130575f5ffd5b5061014b60048036038101906101469190610e41565b610512565b005b348015610158575f5ffd5b506101616106fa565b60405161016e9190610ecb565b60405180910390f35b348015610182575f5ffd5b5061018b610723565b6040516101989190610b5e565b60405180910390f35b3480156101ac575f5ffd5b506101c760048036038101906101c29190610f94565b61072e565b6040516101d5929190611055565b60405180910390f35b3480156101e9575f5ffd5b506101f261080e565b6040516101ff9190610b5e565b60405180910390f35b348015610213575f5ffd5b5061021c610835565b6040516102299190610b5e565b60405180910390f35b34801561023d575f5ffd5b5061025860048036038101906102539190611083565b61083e565b6040516102659190610ecb565b60405180910390f35b5f7f0000000000000000000000000000000000000000000000000000000000000000905090565b5f60025f9054906101000a900460ff16905090565b7f000000000000000000000000000000000000000000000000000000000000000073ffffffffffffffffffffffffffffffffffffffff163373ffffffffffffffffffffffffffffffffffffffff161461035c57337f00000000000000000000000000000000000000000000000000000000000000006040517f1cf993f40000000000000000000000000000000000000000000000000000000081526004016103539291906110ae565b60405180910390fd5b6103668282610881565b5050565b7f00000000000000000000000000000000000000000000000000000000000000003410156103c4576040517f9894879b00000000000000000000000000000000000000000000000000000000815260040160405180910390fd5b6103e85f8054905010610403576040517f1459a10300000000000000000000000000000000000000000000000000000000815260040160405180910390fd5b5f600181111561041657610415610b77565b5b60025f9054906101000a900460ff16600181111561043757610436610b77565b5b1461046e576040517f1425571c00000000000000000000000000000000000000000000000000000000815260040160405180910390fd5b5f33908060018154018082558091505060019003905f5260205f20015f9091909190916101000a81548173ffffffffffffffffffffffffffffffffffffffff021916908373ffffffffffffffffffffffffffffffffffffffff1602179055503373ffffffffffffffffffffffffffffffffffffffff167f0805e1d667bddb8a95f0f09880cf94f403fb596ce79928d9f29b74203ba284d460405160405180910390a2565b5f61052a60405180602001604052805f81525061072e565b5090508061059757475f8054905060025f9054906101000a900460ff16600181111561055957610558610b77565b5b6040517f584327aa00000000000000000000000000000000000000000000000000000000815260040161058e939291906110d5565b60405180910390fd5b600160025f6101000a81548160ff021916908360018111156105bc576105bb610b77565b5b02179055505f7f000000000000000000000000000000000000000000000000000000000000000073ffffffffffffffffffffffffffffffffffffffff16635d3b1d307f00000000000000000000000000000000000000000000000000000000000000007f000000000000000000000000000000000000000000000000000000000000000060037f000000000000000000000000000000000000000000000000000000000000000060016040518663ffffffff1660e01b815260040161068595949392919061117e565b6020604051808303815f875af11580156106a1573d5f5f3e3d5ffd5b505050506040513d601f19601f820116820180604052508101906106c591906111e3565b9050807fcd6e45c8998311cab7e9d4385596cac867e20a0587194b954fa3a731c93ce78b60405160405180910390a250505050565b5f600260019054906101000a900473ffffffffffffffffffffffffffffffffffffffff16905090565b5f5f80549050905090565b5f60605f5f600181111561074557610744610b77565b5b60025f9054906101000a900460ff16600181111561076657610765610b77565b5b1490505f7f000000000000000000000000000000000000000000000000000000000000000060015442610799919061123b565b1190505f5f5f805490501190505f5f471190508380156107b65750825b80156107bf5750815b80156107c85750805b9550856040518060400160405280600381526020017f30783000000000000000000000000000000000000000000000000000000000008152509550955050505050915091565b5f7f0000000000000000000000000000000000000000000000000000000000000000905090565b5f600154905090565b5f5f82815481106108525761085161126e565b5b905f5260205f20015f9054906101000a900473ffffffffffffffffffffffffffffffffffffffff169050919050565b5f5f80549050825f8151811061089a5761089961126e565b5b60200260200101516108ac91906112c8565b90505f5f82815481106108c2576108c161126e565b5b905f5260205f20015f9054906101000a900473ffffffffffffffffffffffffffffffffffffffff16905080600260016101000a81548173ffffffffffffffffffffffffffffffffffffffff021916908373ffffffffffffffffffffffffffffffffffffffff1602179055505f60025f6101000a81548160ff0219169083600181111561095157610950610b77565b5b02179055505f67ffffffffffffffff8111156109705761096f610c52565b5b60405190808252806020026020018201604052801561099e5781602001602082028036833780820191505090505b505f90805190602001906109b3929190610aa4565b50426001819055505f8173ffffffffffffffffffffffffffffffffffffffff16476040516109e090611325565b5f6040518083038185875af1925050503d805f8114610a1a576040519150601f19603f3d011682016040523d82523d5f602084013e610a1f565b606091505b5050905080610a5a576040517fa1d04b3900000000000000000000000000000000000000000000000000000000815260040160405180910390fd5b8173ffffffffffffffffffffffffffffffffffffffff167f5b690ec4a06fe979403046eaeea5b3ce38524683c3001f662c8b5a829632f7df60405160405180910390a25050505050565b828054828255905f5260205f20908101928215610b1a579160200282015b82811115610b19578251825f6101000a81548173ffffffffffffffffffffffffffffffffffffffff021916908373ffffffffffffffffffffffffffffffffffffffff16021790555091602001919060010190610ac2565b5b509050610b279190610b2b565b5090565b5b80821115610b42575f815f905550600101610b2c565b5090565b5f819050919050565b610b5881610b46565b82525050565b5f602082019050610b715f830184610b4f565b92915050565b7f4e487b71000000000000000000000000000000000000000000000000000000005f52602160045260245ffd5b60028110610bb557610bb4610b77565b5b50565b5f819050610bc582610ba4565b919050565b5f610bd482610bb8565b9050919050565b610be481610bca565b82525050565b5f602082019050610bfd5f830184610bdb565b92915050565b5f604051905090565b5f5ffd5b5f5ffd5b610c1d81610b46565b8114610c27575f5ffd5b50565b5f81359050610c3881610c14565b92915050565b5f5ffd5b5f601f19601f8301169050919050565b7f4e487b71000000000000000000000000000000000000000000000000000000005f52604160045260245ffd5b610c8882610c42565b810181811067ffffffffffffffff82111715610ca757610ca6610c52565b5b80604052505050565b5f610cb9610c03565b9050610cc58282610c7f565b919050565b5f67ffffffffffffffff821115610ce457610ce3610c52565b5b602082029050602081019050919050565b5f5ffd5b5f610d0b610d0684610cca565b610cb0565b90508083825260208201905060208402830185811115610d2e57610d2d610cf5565b5b835b81811015610d575780610d438882610c2a565b845260208401935050602081019050610d30565b5050509392505050565b5f82601f830112610d7557610d74610c3e565b5b8135610d85848260208601610cf9565b91505092915050565b5f5f60408385031215610da457610da3610c0c565b5b5f610db185828601610c2a565b925050602083013567ffffffffffffffff811115610dd257610dd1610c10565b5b610dde85828601610d61565b9150509250929050565b5f5ffd5b5f5f83601f840112610e0157610e00610c3e565b5b8235905067ffffffffffffffff811115610e1e57610e1d610de8565b5b602083019150836001820283011115610e3a57610e39610cf5565b5b9250929050565b5f5f60208385031215610e5757610e56610c0c565b5b5f83013567ffffffffffffffff811115610e7457610e73610c10565b5b610e8085828601610dec565b92509250509250929050565b5f73ffffffffffffffffffffffffffffffffffffffff82169050919050565b5f610eb582610e8c565b9050919050565b610ec581610eab565b82525050565b5f602082019050610ede5f830184610ebc565b92915050565b5f5ffd5b5f67ffffffffffffffff821115610f0257610f01610c52565b5b610f0b82610c42565b9050602081019050919050565b828183375f83830152505050565b5f610f38610f3384610ee8565b610cb0565b905082815260208101848484011115610f5457610f53610ee4565b5b610f5f848285610f18565b509392505050565b5f82601f830112610f7b57610f7a610c3e565b5b8135610f8b848260208601610f26565b91505092915050565b5f60208284031215610fa957610fa8610c0c565b5b5f82013567ffffffffffffffff811115610fc657610fc5610c10565b5b610fd284828501610f67565b91505092915050565b5f8115159050919050565b610fef81610fdb565b82525050565b5f81519050919050565b5f82825260208201905092915050565b8281835e5f83830152505050565b5f61102782610ff5565b6110318185610fff565b935061104181856020860161100f565b61104a81610c42565b840191505092915050565b5f6040820190506110685f830185610fe6565b818103602083015261107a818461101d565b90509392505050565b5f6020828403121561109857611097610c0c565b5b5f6110a584828501610c2a565b91505092915050565b5f6040820190506110c15f830185610ebc565b6110ce6020830184610ebc565b9392505050565b5f6060820190506110e85f830186610b4f565b6110f56020830185610b4f565b6111026040830184610b4f565b949350505050565b5f819050919050565b61111c8161110a565b82525050565b5f67ffffffffffffffff82169050919050565b61113e81611122565b82525050565b5f61ffff82169050919050565b61115a81611144565b82525050565b5f63ffffffff82169050919050565b61117881611160565b82525050565b5f60a0820190506111915f830188611113565b61119e6020830187611135565b6111ab6040830186611151565b6111b8606083018561116f565b6111c5608083018461116f565b9695505050505050565b5f815190506111dd81610c14565b92915050565b5f602082840312156111f8576111f7610c0c565b5b5f611205848285016111cf565b91505092915050565b7f4e487b71000000000000000000000000000000000000000000000000000000005f52601160045260245ffd5b5f61124582610b46565b915061125083610b46565b92508282039050818111156112685761126761120e565b5b92915050565b7f4e487b71000000000000000000000000000000000000000000000000000000005f52603260045260245ffd5b7f4e487b71000000000000000000000000000000000000000000000000000000005f52601260045260245ffd5b5f6112d282610b46565b91506112dd83610b46565b9250826112ed576112ec61129b565b5b828206905092915050565b5f81905092915050565b50565b5f6113105f836112f8565b915061131b82611302565b5f82019050919050565b5f61132f82611305565b915081905091905056fea2646970667358221220db02ae66a7b6e1cf35b2f3c0f34b31fc271c80afb22d227127c48cb20b86fdf164736f6c634300081e00330000000000000000000000008103b0a8a00be2ddc778e6e7eaa21791cd364625000000000000000000000000000000000000000000000000002386f26fc10000474e34a077df58807dbe9c96d3c009b23b3c6d0cce433e59bbf5b34f823bc56c00000000000000000000000000000000000000000000000000000000000030bf000000000000000000000000000000000000000000000000000000000007a120000000000000000000000000000000000000000000000000000000000000001e",
        "nonce": "0x4",
        "chainId": "0xaa36a7"
      },
      "additionalContracts": [],
      "isFixedGasLimit": false
    },
    {
      "hash": "0x6c3ab884c38ba374a1800f1bfda37748e0f403ed711621ac76c60a08a0c46a2a",
      "transactionType": "CALL",
      "contractName": null,
      "contractAddress": "0x8103b0a8a00be2ddc778e6e7eaa21791cd364625",
      "function": "addConsumer(uint64,address)",
      "arguments": [
        "12479",
        "0xaC48b201E9D3f27076Da1Bb518E194B88B5288fe"
      ],
      "transaction": {
        "from": "0x3a5525d06aee6da10b384218c7f02006f53a1501",
        "to": "0x8103b0a8a00be2ddc778e6e7eaa21791cd364625",
        "gas": "0x21eb0",
        "value": "0x0",
        "input": "0x7341c10c00000000000000000000000000000000000000000000000000000000000030bf000000000000000000000000ac48b201e9d3f27076da1bb518e194b88b5288fe",
        "nonce": "0x5",
        "chainId": "0xaa36a7"
      },
      "additionalContracts": [],
      "isFixedGasLimit": false
    }
  ],
  "receipts": [
    {
      "status": "0x1",
      "cumulativeGasUsed": "0x1901e1e",
      "logs": [
        {
          "address": "0x8103b0a8a00be2ddc778e6e7eaa21791cd364625",
          "topics": [
            "0x464722b4166576d3dcbba877b999bc35cf911f4eaf434b7eba68fa113951d0bf",
            "0x00000000000000000000000000000000000000000000000000000000000030bf"
          ],
          "data": "0x0000000000000000000000003a5525d06aee6da10b384218c7f02006f53a1501",
          "blockHash": "0x895f135a7f8dde3dda11a6781733a894619777dfd263e3adb56c55f02092000a",
          "blockNumber": "0x8d45e9",
          "blockTimestamp": "0x68d1c140",
          "transactionHash": "0x21c63f9aaec82dbf1c1e1099f765b82444c0b85d48faeb72b5b84896f588239e",
          "transactionIndex": "0x65",
          "logIndex": "0x8e",
          "removed": false
        }
      ],
      "logsBloom": "0x0000000000000000000001000000000000000000000000000000000000000000010000000000000000000000000000000000000000000000000000000000000000000000000000000000000000000000000000000000000000000800000000000000000000000000000000000000000000000000000000000000000000000000000000000c000020000000000000000000000000000000000000000000000000000000000000000000000000000000000000000000000000000000000000000000000000000000200000100000000000000000000000000000000000000000000000000000000000000000002000000000000000000000000000000000000000",
      "type": "0x2",
      "transactionHash": "0x21c63f9aaec82dbf1c1e1099f765b82444c0b85d48faeb72b5b84896f588239e",
      "transactionIndex": "0x65",
      "blockHash": "0x895f135a7f8dde3dda11a6781733a894619777dfd263e3adb56c55f02092000a",
      "blockNumber": "0x8d45e9",
      "gasUsed": "0xe98a",
      "effectiveGasPrice": "0xf74d4",
      "from": "0x3a5525d06aee6da10b384218c7f02006f53a1501",
      "to": "0x8103b0a8a00be2ddc778e6e7eaa21791cd364625",
      "contractAddress": null
    },
    {
      "status": "0x1",
      "cumulativeGasUsed": "0x1914868",
      "logs": [
        {
          "address": "0x779877a7b0d9e8603169ddbd7836e478b4624789",
          "topics": [
            "0xddf252ad1be2c89b69c2b068fc378daa952ba7f163c4a11628f55a4df523b3ef",
            "0x0000000000000000000000003a5525d06aee6da10b384218c7f02006f53a1501",
            "0x0000000000000000000000008103b0a8a00be2ddc778e6e7eaa21791cd364625"
          ],
          "data": "0x00000000000000000000000000000000000000000000000029a2241af62c0000",
          "blockHash": "0x895f135a7f8dde3dda11a6781733a894619777dfd263e3adb56c55f02092000a",
          "blockNumber": "0x8d45e9",
          "blockTimestamp": "0x68d1c140",
          "transactionHash": "0x905538eddd2968192c794eae98715a302c2bdb7768c111896812811ce2f298cd",
          "transactionIndex": "0x66",
          "logIndex": "0x8f",
          "removed": false
        },
        {
          "address": "0x779877a7b0d9e8603169ddbd7836e478b4624789",
          "topics": [
            "0xe19260aff97b920c7df27010903aeb9c8d2be5d310a2c67824cf3f15396e4c16",
            "0x0000000000000000000000003a5525d06aee6da10b384218c7f02006f53a1501",
            "0x0000000000000000000000008103b0a8a00be2ddc778e6e7eaa21791cd364625"
          ],
          "data": "0x00000000000000000000000000000000000000000000000029a2241af62c00000000000000000000000000000000000000000000000000000000000000000040000000000000000000000000000000000000000000000000000000000000002000000000000000000000000000000000000000000000000000000000000030bf",
          "blockHash": "0x895f135a7f8dde3dda11a6781733a894619777dfd263e3adb56c55f02092000a",
          "blockNumber": "0x8d45e9",
          "blockTimestamp": "0x68d1c140",
          "transactionHash": "0x905538eddd2968192c794eae98715a302c2bdb7768c111896812811ce2f298cd",
          "transactionIndex": "0x66",
          "logIndex": "0x90",
          "removed": false
        },
        {
          "address": "0x8103b0a8a00be2ddc778e6e7eaa21791cd364625",
          "topics": [
            "0xd39ec07f4e209f627a4c427971473820dc129761ba28de8906bd56f57101d4f8",
            "0x00000000000000000000000000000000000000000000000000000000000030bf"
          ],
          "data": "0x000000000000000000000000000000000000000000000000000000000000000000000000000000000000000000000000000000000000000029a2241af62c0000",
          "blockHash": "0x895f135a7f8dde3dda11a6781733a894619777dfd263e3adb56c55f02092000a",
          "blockNumber": "0x8d45e9",
          "blockTimestamp": "0x68d1c140",
          "transactionHash": "0x905538eddd2968192c794eae98715a302c2bdb7768c111896812811ce2f298cd",
          "transactionIndex": "0x66",
          "logIndex": "0x91",
          "removed": false
        }
      ],
      "logsBloom": "0x0000001400000000000000000000000000000000000000020000000002000000000000000000800000000000000000000000000000000000000000000000000000000000000000000000000800000000000000000000000000002800000000000000000008000000000000000000000000000000400000000000001001000000000000000c000020000000000000800010000020000000000000000000000000000000000000000000000000000000000000000000000000000400000000000000000002000000000000100000000000000000000000000100000000000000000000000000000000000000002000000000000000000000000040000000000000",
      "type": "0x2",
      "transactionHash": "0x905538eddd2968192c794eae98715a302c2bdb7768c111896812811ce2f298cd",
      "transactionIndex": "0x66",
      "blockHash": "0x895f135a7f8dde3dda11a6781733a894619777dfd263e3adb56c55f02092000a",
      "blockNumber": "0x8d45e9",
      "gasUsed": "0x12a4a",
      "effectiveGasPrice": "0xf74d4",
      "from": "0x3a5525d06aee6da10b384218c7f02006f53a1501",
      "to": "0x779877a7b0d9e8603169ddbd7836e478b4624789",
      "contractAddress": null
    },
    {
      "status": "0x1",
      "cumulativeGasUsed": "0x1a30395",
      "logs": [],
      "logsBloom": "0x00000000000000000000000000000000000000000000000000000000000000000000000000000000000000000000000000000000000000000000000000000000000000000000000000000000000000000000000000000000000000000000000000000000000000000000000000000000000000000000000000000000000000000000000000000000000000000000000000000000000000000000000000000000000000000000000000000000000000000000000000000000000000000000000000000000000000000000000000000000000000000000000000000000000000000000000000000000000000000000000000000000000000000000000000000000",
      "type": "0x2",
      "transactionHash": "0xf1482d3e3b4a6213565da4792225126de1ec2136ad48866cb6557c66a44b9a40",
      "transactionIndex": "0x67",
      "blockHash": "0x895f135a7f8dde3dda11a6781733a894619777dfd263e3adb56c55f02092000a",
      "blockNumber": "0x8d45e9",
      "gasUsed": "0x11bb2d",
      "effectiveGasPrice": "0xf74d4",
      "from": "0x3a5525d06aee6da10b384218c7f02006f53a1501",
      "to": null,
      "contractAddress": "0xac48b201e9d3f27076da1bb518e194b88b5288fe"
    },
    {
      "status": "0x1",
      "cumulativeGasUsed": "0x1a476a7",
      "logs": [
        {
          "address": "0x8103b0a8a00be2ddc778e6e7eaa21791cd364625",
          "topics": [
            "0x43dc749a04ac8fb825cbd514f7c0e13f13bc6f2ee66043b76629d51776cff8e0",
            "0x00000000000000000000000000000000000000000000000000000000000030bf"
          ],
          "data": "0x000000000000000000000000ac48b201e9d3f27076da1bb518e194b88b5288fe",
          "blockHash": "0x895f135a7f8dde3dda11a6781733a894619777dfd263e3adb56c55f02092000a",
          "blockNumber": "0x8d45e9",
          "blockTimestamp": "0x68d1c140",
          "transactionHash": "0x6c3ab884c38ba374a1800f1bfda37748e0f403ed711621ac76c60a08a0c46a2a",
          "transactionIndex": "0x68",
          "logIndex": "0x92",
          "removed": false
        }
      ],
      "logsBloom": "0x0000000000000000000000000000000000000000000000000000000000000000000000000000000000000000000000000000000000000000000000000000000000000000000000000000000000000000000000000000000000000800000000000000000000008000000000000000000000000000000000000000000000000000000000000c000020000000000000000000000000000000000000000000000000000000000000000000000080000000000000000000000000000000000000000000000000000000000000100000000000000000000000000000020000000000000000000000000000000000002000000000000000000000000000000000000000",
      "type": "0x2",
      "transactionHash": "0x6c3ab884c38ba374a1800f1bfda37748e0f403ed711621ac76c60a08a0c46a2a",
      "transactionIndex": "0x68",
      "blockHash": "0x895f135a7f8dde3dda11a6781733a894619777dfd263e3adb56c55f02092000a",
      "blockNumber": "0x8d45e9",
      "gasUsed": "0x17312",
      "effectiveGasPrice": "0xf74d4",
      "from": "0x3a5525d06aee6da10b384218c7f02006f53a1501",
      "to": "0x8103b0a8a00be2ddc778e6e7eaa21791cd364625",
      "contractAddress": null
    }
  ],
  "libraries": [],
  "pending": [],
  "returns": {
    "1": {
      "internal_type": "contract HelperConfig",
      "value": "0xC7f2Cf4845C6db0e1a1e91ED41Bcd0FcC1b0E141"
    },
    "0": {
      "internal_type": "contract Raffle",
      "value": "0xaC48b201E9D3f27076Da1Bb518E194B88B5288fe"
    }
  },
  "timestamp": 1758576960311,
  "chain": 11155111,
  "commit": null
}